:103E0000112484B714BE81FFE2D085E08093810045
:103E100082E08093C00098E19093C10096E0909377
:103E2000C2008093C400259A84E029EF3FEF3093CD
:103E300085002093840091E096BBB09BFECF1D9A35
:103E4000815099F7C12CD12CACD0813489F4A9D000
:103E50008983B0D08981823819F484E09BD097C0DF
:103E6000813819F484E096D092C083E093D08FC05B
:103E7000823419F484E1A4D08AC0853419F485E031
:103E80009FD085C0853551F48CD0182F8AD0C12E93
:103E9000D12CD82ACC0CDD1C8DD079C0863529F4E4
:103EA00084E08ED080E076D072C0843609F046C0BF
:103EB00078D077D0F82E75D0C11488E3D80638F4BE
:103EC00083E0F60187BFE89500E011E002C000E062
:103ED00011E067D0F80181938F01FE12FACFC1146F
:103EE000F8E3DF0620F083E0F60187BFE89562D0B3
:103EF00007B600FCFDCFA601A0E0B1E08C911296C0
:103F00009D0121503109F901208190E0922B21E09F
:103F1000FA010C0127BFE89511244E5F5F4FA038CE
:103F2000F1E0BF0759F785E0F60187BFE89507B6CE
:103F300000FCFDCF81E187BFE89529C08437C1F43B
:103F400030D02FD0182F2DD035D0F6017F018FEF34
:103F5000E81AF80A84911ED0F7018C2D810F8E117A
:103F6000F5CFEFEFCE1ADE0A1150C10ED11C0FC0F3
:103F7000853741F41FD08EE10DD084E90BD086E067
:103F800009D005C0813511F415D001C013D080E1EE
:103F900001D05ACF9091C00095FFFCCF8093C6000E
:103FA00008958091C00087FFFCCF8091C000809170
:103FB000C6000895F6DF803209F0FFCF84E1EACF32
:103FC000CF93C82FEEDFC150E9F7CF91F3CFEE27A3
:043FD000FF2709942A
:023FFE000404B9
:0400000300003E00BB
:00000001FF
